:020000040800F2
:100000000050002049060008D1060008D10600086B
:10001000D1060008D1060008D10600080000000043
:10002000000000000000000000000000D1060008F1
:10003000D106000800000000D1060008D106000823
:10004000D1060008D1060008D1060008D106000834
:10005000D1060008D1060008D1060008D106000824
:10006000D1060008D1060008D1060008D106000814
:10007000D1060008D1060008D1060008D106000804
:10008000D1060008D1060008D1060008D1060008F4
:10009000D1060008D1060008D1060008D1060008E4
:1000A000D1060008D1060008D1060008D1060008D4
:1000B000D1060008D1060008D1060008D1060008C4
:1000C000D1060008D1060008D1060008D1060008B4
:1000D000D1060008D1060008D1060008D1060008A4
:1000E000D1060008D106000800000000D106000873
:1000F000D1060008D1060008D1060008D106000884
:10010000D1060008D1060008D1060008D106000873
:10011000D1060008D1060008D1060008D106000863
:10012000D1060008D1060008D1060008D106000853
:1001300080B483B000AF1A4B5B684FF000725A6016
:10014000174B9B684FF400125A6000237B6002E05B
:100150007B6801337B607B68124A9342F8D3104B73
:100160005B684FF48042DA600D4B9B684FF400529D
:100170005A6000233B6002E03B6801333B603B6810
:10018000084A9342F8D3064B5B680022DA60044BBE
:100190009B680022DA6000BF0C37BD4680BC704708
:1001A000000000208096980080B483B000AF034622
:1001B000FB710B46BB7113467B71FB79002B05D09D
:1001C000FB79012B02D0FB79022B7DD1BB790F2B60
:1001D0007AD87B79102B02D97B79312B74D1BB79FA
:1001E000072B25D8FB793B4A52F823301A68BB7994
:1001F0009B000F2101FA03F3DB431846FB793549D5
:1002000051F8233002401A60FB79324A52F8233009
:100210001A687B7903F00F01BB799B0001FA03F3A5
:100220001846FB792B4951F8233002431A6026E027
:10023000FB79284A52F823305A68BB79083B9B0067
:100240000F2101FA03F3DB431846FB79214951F8EA
:10025000233002405A60FB791E4A52F823305A6814
:100260007B7903F00F01BB79083B9B0001FA03F394
:100270001846FB79174951F8233002435A607B79BD
:10028000082B11D1FB79134A52F82330DA68BB7975
:10029000012101FA03F3DB431846FB790D4951F8BC
:1002A00023300240DA600FE0FB790A4A52F823302B
:1002B000DA68BB79012101FA03F31846FB79054995
:1002C00051F823300243DA6000BF0C37BD4680BCD2
:1002D000704700BF0000002080B483B000AF034629
:1002E000FB710B46BB7113467B71FB79002B05D06C
:1002F000FB79012B02D0FB79022B30D1BB790F2B7C
:100300002DD87B79002B02D07B79012B27D17B79EB
:10031000002B12D0012B24D1FB79154A52F823303F
:10032000DA68BB79012101FA03F31846FB79104919
:1003300051F823300243DA6014E0FB790C4A52F89A
:100340002330DA68BB79012101FA03F3DB43184655
:10035000FB79074951F823300240DA6002E000BF20
:1003600000E000BF00BF0C37BD4680BC704700BF37
:100370000000002080B483B000AF03460A46FB7142
:100380001346BB71002318460C37BD4680BC70472E
:1003900080B483B000AF03460A46FB711346BB71BD
:1003A000FB79022B1CD0022B25DC002B02D0012B69
:1003B0000BD020E0134B5B69BA79012101FA02F2FC
:1003C0001146104A0B43536116E00E4BDB69BA79B4
:1003D000012101FA02F211460A4A0B43D3610BE0F4
:1003E000084B9B69BA79012101FA02F21146054ACC
:1003F0000B43936100E000BF00BF0C37BD4680BCDB
:10040000704700BF0010024080B483B000AF0346C5
:100410000A46FB711346BB71FB79022B1ED0022BDF
:1004200028DC002B02D0012B0CD023E0144B5B699D
:10043000BA79012101FA02F2D2431146104A0B4067
:10044000536118E00E4BDB69BA79012101FA02F21F
:10045000D24311460A4A0B40D3610CE0084B9B691A
:10046000BA79012101FA02F2D2431146044A0B4043
:10047000936100E000BF00BF0C37BD4680BC7047F1
:100480000010024080B500AF00F07AF8064B5B68C0
:10049000054A23F001035360034B5B68024A43F0B3
:1004A0000203536000BF80BD0010024080B400AF63
:1004B000044B5B68DBB203F00C03DBB21846BD46AD
:1004C00080BC70470010024080B483B000AF034688
:1004D000FB71194B1B68184A23F480331360FB79B6
:1004E000002B02D0012B07D00DE0134B1B68124AE2
:1004F00023F48023136006E00F4B1B680E4A43F47D
:100500008023136000BF0C4B1B680B4A43F48033FD
:10051000136000BF084B1B685B0C03F00103002B4A
:10052000F8D0054B9B68044A43F40023936000BF56
:100530000C37BD4680BC70470010024080B400AF4D
:100540000E4B1B680D4A43F00103136000BF0B4BB9
:100550001B685B0803F00103002BF8D0074B9B6876
:10056000064A43F480239360044B1B68034A23F03C
:100570007803136000BFBD4680BC70470010024086
:1005800080B500AF184B1B68174A43F080731360A7
:1005900000BF154B1B685B0E03F00103002BF8D066
:1005A000114B9B68104A43F4801393600020FFF7BF
:1005B0008BFF0D4B5B680C4A43F4803353600A4B4E
:1005C0005B68094A23F400335360074B5B68064AB3
:1005D00023F470135360044B5B68034A43F4001325
:1005E000536000BF80BD00BF0010024080B483B0E4
:1005F00000AF78607B68002B19D00F4B5B680E4A08
:1006000023F47F5323F0300353600B4B5B687A680D
:10061000127811017A685278120211437A6892783E
:10062000D2020A431146044A0B43536000E000BF64
:100630000C37BD4680BC70470010024080B500AF4B
:10064000FFF720FF00BF80BD80B500AF00F005F8C8
:1006500000F024F800F042F8FEE780B483B000AF69
:100660000B4B7B600B4B3B6007E07A68131D7B6094
:100670003B68191D396012681A603B68064A93424C
:10068000F3D300BF00BF0C37BD4680BC704700BF2E
:1006900060070008000000200C00002080B483B038
:1006A00000AF094B7B6004E07B681A1D7A60002272
:1006B0001A607B68054A9342F6D300BF00BF0C372F
:1006C000BD4680BC704700BF0C0000200C0000201D
:1006D00080B400AF00BFBD4680BC704780B582B01B
:1006E00000AFFFF7ABFF03210220FFF751FE04210B
:1006F0000220FFF74DFE02220F210120FFF754FDDB
:1007000002220D210220FFF74FFD01220F210120BF
:10071000FFF7E2FD01220D210220FFF7DDFD00239E
:100720007B6002E07B6801337B607B680B4A93420D
:10073000F8D300220F210120FFF7CEFD00220D216A
:100740000220FFF7C9FD00233B6002E03B68013354
:100750003B603B68014A9342F8D3D6E78096980005
:0C07600000080140000C014000100140A6
:0400000508000649A0
:00000001FF
