:020000040800F2
:1000000000500020A10C0008290D0008290D00084F
:10001000290D0008290D0008290D00080000000026
:10002000000000000000000000000000290D000892
:10003000290D000800000000290D0008590C0008D7
:10004000290D0008290D0008290D0008290D0008B8
:10005000290D0008290D0008000000000000000024
:10006000290D0008290D0008290D0008290D000898
:10007000290D0008290D0008290D0008290D000888
:10008000290D0008290D0008290D0008290D000878
:10009000290D0008290D0008290D0008290D000868
:1000A000290D0008290D0008290D0008290D000858
:1000B000290D0008290D0008290D0008290D000848
:1000C000290D0008290D0008290D0008290D000838
:1000D000290D0008290D0008290D0008290D000828
:1000E000290D0008290D000800000000290D000856
:1000F000290D0008290D0008290D0008290D000808
:10010000290D0008290D0008290D0008290D0008F7
:10011000290D0008290D0008290D0008290D0008E7
:10012000290D0008290D0008290D0008290D0008D7
:1001300080B485B000AF03460A46FB711346BB711D
:10014000BB790F2B2CD8FB79022B29D8BB799B08C4
:10015000FB73164AFB7B023352F82320BB7903F072
:1001600003039B000F2101FA03F3DB4318460F49F9
:10017000FB7B0240023341F823200C4AFB7B023315
:1001800052F82320F979BB7903F003039B0001FAAD
:1001900003F318460549FB7B0243023341F8232051
:1001A00000BF1437BD4680BC704700BF000001404F
:1001B00080B582B000AF0346FB710B46BB7113469E
:1001C0007B717A79BB791146184600F03BF8BB7910
:1001D000184600F004F800BF0837BD4680BD80B463
:1001E00083B000AF0346FB71FB790F2B09D8074B97
:1001F0001B68FA79012101FA02F21146034A0B4306
:10020000136000BF0C37BD4680BC7047000401403E
:1002100080B483B000AF0346FB71FB790F2B0AD883
:10022000074B1B68FA79012101FA02F2D243114609
:10023000034A0B40136000BF0C37BD4680BC7047BB
:100240000004014080B483B000AF03460A46FB714E
:100250001346BB71BB79022B32D0022B45DC002B3D
:1002600002D0012B16D040E0234B9B68FA79012184
:1002700001FA02F21146204A0B4393601E4BDB68E1
:10028000FA79012101FA02F2D24311461A4A0B40CF
:10029000D3602BE0184BDB68FA79012101FA02F2F6
:1002A0001146154A0B43D360134B9B68FA79012121
:1002B00001FA02F2D24311460F4A0B40936015E057
:1002C0000D4B9B68FA79012101FA02F211460A4AA4
:1002D0000B439360084BDB68FA79012101FA02F2C3
:1002E0001146054A0B43D36000E000BF00BF0C3746
:1002F000BD4680BC704700BF0004014080B483B09D
:1003000000AF0346FB71FB790F2B09D8074B1B6924
:10031000FA79012101FA02F21146044A0B431361F2
:1003200000BF0C37BD4680BC704700BF00040140D1
:1003300080B483B000AF0346FB710B46BB7113461C
:100340007B71FB79002B06D0FB79012B03D0FB7965
:10035000022B40F08180BB790F2B7DD87B790F2B4E
:1003600002D97B79312B77D1BB79072B25D8FB7943
:100370003C4A52F823301A68BB799B000F2101FADE
:1003800003F3DB431846FB79364951F8233002402A
:100390001A60FB79334A52F823301A687B7903F0EC
:1003A0000F01BB799B0001FA03F31846FB792D4935
:1003B00051F8233002431A6026E0FB79294A52F8AB
:1003C00023305A68BB79083B9B000F2101FA03F3E5
:1003D000DB431846FB79234951F8233002405A6029
:1003E000FB79204A52F823305A687B7903F00F01D9
:1003F000BB79083B9B0001FA03F31846FB791949C6
:1004000051F8233002435A607B79092B11D1FB79D3
:10041000144A52F82330DA68BB79012101FA03F358
:10042000DB431846FB790F4951F823300240DA606C
:1004300012E07B79312B0FD1FB790A4A52F8233035
:10044000DA68BB79012101FA03F31846FB79054903
:1004500051F823300243DA6000BF0C37BD4680BC40
:10046000704700BF0000002080B483B000AF034697
:10047000FB710B46BB7113467B71FB79002B05D0DA
:10048000FB79012B02D0FB79022B23D1BB790F2BF7
:1004900020D87B79002B02D07B79012B1AD17B7974
:1004A000002B0CD0012B17D1BB79012202FA03F1EA
:1004B000FB790C4A52F823300A461A610DE0BB79E9
:1004C000012202FA03F1FB79064A52F823300A4668
:1004D0005A6102E000BF00E000BF00BF0C37BD461C
:1004E00080BC70470000002080B483B000AF03469A
:1004F0000A46FB711346BB71FB79002B05D0FB79D3
:10050000012B02D0FB79022B0FD1BB790F2B0CD81A
:10051000FB79094A52F823309A68BB7922FA03F32F
:10052000DBB203F00103DBB200E0002318460C3716
:10053000BD4680BC704700BF0000002080B483B07F
:1005400000AF0346FB710B46BB7113467B71FB7911
:10055000002B05D0FB79012B02D0FB79022B6DD14A
:10056000BB790F2B6AD87B79002B02D0012B33D0BB
:1005700069E0FB79364A52F8233000221A60BB79D1
:1005800003F00F034FF0113202FB03F1FB79304A05
:1005900052F823300A461A60BB79092B0CD1FB793B
:1005A0002B4A52F82330DA68FB79294951F8233075
:1005B00002F47F42DA6043E0BB79312B40D1FB7912
:1005C000234A52F82330DA68FB79214951F8233065
:1005D00042F0FF02DA6033E0FB791D4A52F8233023
:1005E00000225A60BB7903F00F034FF0113202FB77
:1005F00003F1FB79164A52F823300A465A60BB7958
:10060000092B0BD1FB79124A52F82330D968FB79B8
:100610000F4A52F82330CAB2DA6013E0BB79312BAB
:1006200010D1FB790A4A52F82330DA68FB7908497D
:1006300051F8233042F47F42DA6003E000BF02E069
:1006400000BF00E000BF00BF0C37BD4680BC704754
:100650000000002080B483B000AF0346FB710B465E
:10066000BB7113467B71BB79002B02D0012B13D0D9
:1006700028E0FB79164A52F82330FF225A61FB79B1
:10068000134A52F82330D9687A79FB79104850F828
:1006900023300A43DA6015E0FB790D4A52F8233023
:1006A0004FF47F425A61FB79094A52F82330DA68E5
:1006B0007B791B021846FB79054951F82330024328
:1006C000DA6000BF00BF0C37BD4680BC704700BF7A
:1006D0000000002080B483B000AF03460A46FB71DF
:1006E0001346BB71002318460C37BD4680BC7047CB
:1006F00080B483B000AF03460A46FB711346BB715A
:1007000000BF0C37BD4680BC704700BF80B500AF4E
:1007100000F0C4F800BF80BD80B485B000AF0346D0
:10072000FB71FB7903F01F03FB73FB791F2B06D8CA
:10073000FB7B01229A40094B1B681A6008E0FB7999
:100740003B2B05D8FB7B01229A40044B5B681A6067
:1007500000BF1437BD4680BC704700BF0C000020AE
:1007600080B485B000AF0346FB71FB7903F01F0333
:10077000FB73FB791F2B06D8FB7B01229A40094BA8
:100780009B681A6008E0FB793B2B05D8FB7B0122B4
:100790009A40044BDB681A6000BF1437BD4680BC2A
:1007A000704700BF0C00002080B485B000AF034646
:1007B000FB71FB7903F01F03FB73FB791F2B06D83A
:1007C000FB7B01229A40094B1B691A6008E0FB7908
:1007D0003B2B05D8FB7B01229A40044B1B691A6016
:1007E00000BF1437BD4680BC704700BF0C0000201E
:1007F00080B485B000AF0346FB71FB7903F01F03A3
:10080000FB73FB791F2B06D8FB7B01229A40094B17
:100810009B691A6008E0FB793B2B05D8FB7B012222
:100820009A40044B9B691A6000BF1437BD4680BCD8
:10083000704700BF0C00002080B485B000AF0346B5
:10084000FB71FB7903F01F03BB73FB791F2B0DD8E2
:10085000114B1B6A1A68BB7B012101FA03F322FAD0
:1008600003F3DBB203F00103FB730FE0FB793B2BD7
:100870000CD8094B5B6A1A68BB7B012101FA03F3B0
:1008800022FA03F3DBB203F00103FB73FB7B184690
:100890001437BD4680BC70470C00002080B483B084
:1008A00000AF054B7B60054A7B68136000BF0C37C7
:1008B000BD4680BC704700BF0007FA050CED00E0A4
:1008C00080B485B000AF0346FB710B46BB71134685
:1008D0007B71FB793B2B10D8BB791B015AB297F97E
:1008E000053013435BB2FB73FB7903F1604303F5FF
:1008F0006443FA7B1201D2B21A7000BF1437BD46AE
:1009000080BC704780B483B000AF03460A46FB71D9
:100910001346BB71FB79022B1CD0022B25DC002B6C
:1009200002D0012B0BD020E0134B5B69BA79012177
:1009300001FA02F21146104A0B43536116E00E4BC6
:10094000DB69BA79012101FA02F211460A4A0B4326
:10095000D3610BE0084B9B69BA79012101FA02F2DD
:100960001146054A0B43936100E000BF00BF0C37FE
:10097000BD4680BC704700BF0010024080B483B009
:1009800000AF03460A46FB711346BB71FB79022B8D
:100990001ED0022B28DC002B02D0012B0CD023E030
:1009A000144B5B69BA79012101FA02F2D243114674
:1009B000104A0B40536118E00E4BDB69BA790121F4
:1009C00001FA02F2D24311460A4A0B40D3610CE00D
:1009D000084B9B69BA79012101FA02F2D243114610
:1009E000044A0B40936100E000BF00BF0C37BD46D6
:1009F00080BC70470010024080B500AF00F07AF86C
:100A0000064B5B68054A23F001035360034B5B68A8
:100A1000024A43F00203536000BF80BD0010024051
:100A200080B400AF044B5B68DBB203F00C03DBB2B5
:100A30001846BD4680BC70470010024080B483B0A9
:100A400000AF0346FB71194B1B68184A23F480332F
:100A50001360FB79002B02D0012B07D00DE0134B64
:100A60001B68124A23F48023136006E00F4B1B68B7
:100A70000E4A43F48023136000BF0C4B1B680B4AE3
:100A800043F48033136000BF084B1B685B0C03F01A
:100A90000103002BF8D0054B9B68044A43F4002364
:100AA000936000BF0C37BD4680BC70470010024009
:100AB00080B400AF0E4B1B680D4A43F00103136076
:100AC00000BF0B4B1B685B0803F00103002BF8D041
:100AD000074B9B68064A43F480239360044B1B68D2
:100AE000034A23F07803136000BFBD4680BC704703
:100AF0000010024080B500AF0020FFF79FFF174BAA
:100B00005B68164A43F480335360144B5B68134AA6
:100B100023F400335360114B5B68104A23F47013C5
:100B200053600E4B5B680D4A43F4E01353600B4B6C
:100B30001B680A4A43F08073136000BF074B1B68B1
:100B40005B0E03F00103002BF8D0044B9B68034AB3
:100B500043F48013936000BF80BD00BF00100240CB
:100B600080B483B000AF78607B68002B19D00F4B46
:100B70005B680E4A23F47F5323F0300353600B4B22
:100B80005B687A68127811017A6852781202114310
:100B90007A689278D2020A431146044A0B435360A2
:100BA00000E000BF0C37BD4680BC7047001002401B
:100BB00080B582B000AFFFF71FFF00233B71042315
:100BC0007B710023BB713B1D1846FFF7C9FF00BFB7
:100BD0000837BD4680BD00BF80B400AF024B1B6824
:100BE0001846BD4680BC70473400002080B483B0F6
:100BF00000AF0A4B00221A604FF4FA537B60074B98
:100C000000229A60054A7B68013B5360034B072230
:100C10001A6000BF0C37BD4680BC704710E000E092
:100C200080B400AF044B1B68034A43F00103136018
:100C300000BFBD4680BC704710E000E080B400AF4C
:100C4000044B1B68034A23F00103136000BFBD4639
:100C500080BC704710E000E080B400AF044B1B681C
:100C60000133034A136000BFBD4680BC704700BF1C
:100C70003400002080B584B000AF7860FFF7ACFF8F
:100C8000F86000BFFFF7A8FF0246FB68D31A7A6836
:100C90009A42F7D800BF00BF1037BD4680BD00BFE5
:100CA00080B500AF00F005F800F024F800F042F83D
:100CB000FEE780B483B000AF0B4B7B600B4B3B6017
:100CC00007E07A68131D7B603B68191D3960126864
:100CD0001A603B68064A9342F3D300BF00BF0C374B
:100CE000BD4680BC704700BF940D00080000002086
:100CF0003400002080B483B000AF094B7B6004E077
:100D00007B681A1D7A6000221A607B68054A93424C
:100D1000F6D300BF00BF0C37BD4680BC704700BF94
:100D2000340000203800002080B400AF00BFBD4672
:100D300080BC704780B500AFFFF73AFF0221022068
:100D4000FFF7E0FD03210220FFF7DCFD0421022074
:100D5000FFF7D8FD02220E210120FFF7E9FA022257
:100D60000D210220FFF7E4FAFFF740FF01220E21D8
:100D70000120FFF779FB4FF47A70FFF77BFF002229
:100D80000E210120FFF770FB4FF47A70FFF772FF1E
:040D9000ECE700008C
:100D940000080140000C01400010014000E100E0A7
:100DA40004E100E080E100E084E100E000E200E032
:100DB40004E200E080E200E084E200E000E300E01E
:040DC40004E300E064
:0400000508000CA142
:00000001FF
