:020000040800F2
:100000000050002061040008E9040008E904000829
:10001000E9040008E9040008E90400080000000001
:10002000000000000000000000000000E9040008DB
:10003000E904000800000000E9040008E9040008E1
:10004000E9040008E9040008E9040008E9040008DC
:10005000E9040008E9040008E9040008E9040008CC
:10006000E9040008E9040008E9040008E9040008BC
:10007000E9040008E9040008E9040008E9040008AC
:10008000E9040008E9040008E9040008E90400089C
:10009000E9040008E9040008E9040008E90400088C
:1000A000E9040008E9040008E9040008E90400087C
:1000B000E9040008E9040008E9040008E90400086C
:1000C000E9040008E9040008E9040008E90400085C
:1000D000E9040008E9040008E9040008E90400084C
:1000E000E9040008E904000800000000E904000831
:1000F000E9040008E9040008E9040008E90400082C
:10010000E9040008E9040008E9040008E90400081B
:10011000E9040008E9040008E9040008E90400080B
:10012000E9040008E9040008E9040008E9040008FB
:1001300080B483B000AF1A4B5B684FF000725A6016
:10014000174B9B684FF400125A6000237B6002E05B
:100150007B6801337B607B68124A9342F8D3104B73
:100160005B684FF48042DA600D4B9B684FF400529D
:100170005A6000233B6002E03B6801333B603B6810
:10018000084A9342F8D3064B5B680022DA60044BBE
:100190009B680022DA6000BF0C37BD4680BC704708
:1001A000000000208096980080B483B000AF034622
:1001B0000A46FB711346BB71FB79022B1CD0022B44
:1001C00025DC002B02D0012B0BD020E0134B5B6908
:1001D000BA79012101FA02F21146104A0B43536128
:1001E00016E00E4BDB69BA79012101FA02F21146E1
:1001F0000A4A0B43D3610BE0084B9B69BA79012192
:1002000001FA02F21146054A0B43936100E000BF78
:1002100000BF0C37BD4680BC704700BF00100240D5
:1002200080B483B000AF03460A46FB711346BB712E
:10023000FB79022B1ED0022B28DC002B02D0012BD5
:100240000CD023E0144B5B69BA79012101FA02F268
:10025000D2431146104A0B40536118E00E4BDB6944
:10026000BA79012101FA02F2D24311460A4A0B403F
:10027000D3610CE0084B9B69BA79012101FA02F2C3
:10028000D2431146044A0B40936100E000BF00BF17
:100290000C37BD4680BC70470010024080B500AFEF
:1002A00000F07AF8064B5B68054A23F001035360BF
:1002B000034B5B68024A43F00203536000BF80BDFA
:1002C0000010024080B400AF044B5B68DBB203F067
:1002D0000C03DBB21846BD4680BC704700100240DC
:1002E00080B483B000AF0346FB71194B1B68184AFA
:1002F00023F480331360FB79002B02D0012B07D04D
:100300000DE0134B1B68124A23F48023136006E0B0
:100310000F4B1B680E4A43F48023136000BF0C4B45
:100320001B680B4A43F48033136000BF084B1B6803
:100330005B0C03F00103002BF8D0054B9B68044ACB
:1003400043F40023936000BF0C37BD4680BC704768
:100350000010024080B400AF0E4B1B680D4A43F002
:100360000103136000BF0B4B1B685B0803F0010324
:10037000002BF8D0074B9B68064A43F48023936018
:10038000044B1B68034A23F07803136000BFBD468B
:1003900080BC70470010024080B500AF184B1B684E
:1003A000174A43F08073136000BF154B1B685B0E48
:1003B00003F00103002BF8D0114B9B68104A43F463
:1003C000801393600020FFF78BFF0D4B5B680C4A96
:1003D00043F4803353600A4B5B68094A23F40033CB
:1003E0005360074B5B68064A23F470135360044B59
:1003F0005B68034A43F40013536000BF80BD00BF35
:100400000010024080B483B000AF78607B68002B9E
:1004100019D00F4B5B680E4A23F47F5323F030034F
:1004200053600B4B5B687A68127811017A685278D6
:10043000120211437A689278D2020A431146044AA2
:100440000B43536000E000BF0C37BD4680BC7047D3
:100450000010024080B500AFFFF720FF00BF80BD55
:1004600080B500AF00F005F800F024F800F042F885
:10047000FEE780B483B000AF0B4B7B600B4B3B605F
:1004800007E07A68131D7B603B68191D39601268AC
:100490001A603B68064A9342F3D300BF00BF0C3793
:1004A000BD4680BC704700BF140500080000002056
:1004B0000C00002080B483B000AF094B7B6004E0E7
:1004C0007B681A1D7A6000221A607B68054A934295
:1004D000F6D300BF00BF0C37BD4680BC704700BFDD
:1004E0000C0000200C00002080B400AF00BFBD460F
:1004F00080BC704780B500AFFFF7ACFF032102203E
:10050000FFF752FE04210220FFF74EFEFFF710FE18
:04051000FCE7000004
:0C05140000080140000C014000100140F4
:04000005080004618A
:00000001FF
