:020000040800F2
:1000000000500020C50700084D0800084D080008F2
:100010004D0800084D0800084D08000800000000C9
:100020000000000000000000000000004D08000873
:100030004D080008000000004D0800084D080008A9
:100040004D0800084D0800084D0800084D0800083C
:100050004D0800084D0800084D0800084D0800082C
:100060004D0800084D0800084D0800084D0800081C
:100070004D0800084D0800084D0800084D0800080C
:100080004D0800084D0800084D0800084D080008FC
:100090004D0800084D0800084D0800084D080008EC
:1000A0004D0800084D0800084D0800084D080008DC
:1000B0004D0800084D0800084D0800084D080008CC
:1000C0004D0800084D0800084D0800084D080008BC
:1000D0004D0800084D0800084D0800084D080008AC
:1000E0004D0800084D080008000000004D080008F9
:1000F0004D0800084D0800084D0800084D0800088C
:100100004D0800084D0800084D0800084D0800087B
:100110004D0800084D0800084D0800084D0800086B
:100120004D0800084D0800084D0800084D0800085B
:1001300080B483B000AF0346FB710B46BB7113461E
:100140007B71FB79002B06D0FB79012B03D0FB7967
:10015000022B40F08180BB790F2B7DD87B790F2B50
:1001600002D97B79312B77D1BB79072B25D8FB7945
:100170003C4A52F823301A68BB799B000F2101FAE0
:1001800003F3DB431846FB79364951F8233002402C
:100190001A60FB79334A52F823301A687B7903F0EE
:1001A0000F01BB799B0001FA03F31846FB792D4937
:1001B00051F8233002431A6026E0FB79294A52F8AD
:1001C00023305A68BB79083B9B000F2101FA03F3E7
:1001D000DB431846FB79234951F8233002405A602B
:1001E000FB79204A52F823305A687B7903F00F01DB
:1001F000BB79083B9B0001FA03F31846FB791949C8
:1002000051F8233002435A607B79092B11D1FB79D5
:10021000144A52F82330DA68BB79012101FA03F35A
:10022000DB431846FB790F4951F823300240DA606E
:1002300012E07B79312B0FD1FB790A4A52F8233037
:10024000DA68BB79012101FA03F31846FB79054905
:1002500051F823300243DA6000BF0C37BD4680BC42
:10026000704700BF0000002080B483B000AF034699
:10027000FB710B46BB7113467B71FB79002B05D0DC
:10028000FB79012B02D0FB79022B23D1BB790F2BF9
:1002900020D87B79002B02D07B79012B1AD17B7976
:1002A000002B0CD0012B17D1BB79012202FA03F1EC
:1002B000FB790C4A52F823300A461A610DE0BB79EB
:1002C000012202FA03F1FB79064A52F823300A466A
:1002D0005A6102E000BF00E000BF00BF0C37BD461E
:1002E00080BC70470000002080B483B000AF03469C
:1002F0000A46FB711346BB71FB79002B05D0FB79D5
:10030000012B02D0FB79022B0FD1BB790F2B0CD81C
:10031000FB79094A52F823309A68BB7922FA03F331
:10032000DBB203F00103DBB200E0002318460C3718
:10033000BD4680BC704700BF0000002080B483B081
:1003400000AF0346FB710B46BB7113467B71FB7913
:10035000002B05D0FB79012B02D0FB79022B6DD14C
:10036000BB790F2B6AD87B79002B02D0012B33D0BD
:1003700069E0FB79364A52F8233000221A60BB79D3
:1003800003F00F034FF0113202FB03F1FB79304A07
:1003900052F823300A461A60BB79092B0CD1FB793D
:1003A0002B4A52F82330DA68FB79294951F8233077
:1003B00002F47F42DA6043E0BB79312B40D1FB7914
:1003C000234A52F82330DA68FB79214951F8233067
:1003D00042F0FF02DA6033E0FB791D4A52F8233025
:1003E00000225A60BB7903F00F034FF0113202FB79
:1003F00003F1FB79164A52F823300A465A60BB795A
:10040000092B0BD1FB79124A52F82330D968FB79BA
:100410000F4A52F82330CAB2DA6013E0BB79312BAD
:1004200010D1FB790A4A52F82330DA68FB7908497F
:1004300051F8233042F47F42DA6003E000BF02E06B
:1004400000BF00E000BF00BF0C37BD4680BC704756
:100450000000002080B483B000AF0346FB710B4660
:10046000BB7113467B71BB79002B02D0012B13D0DB
:1004700028E0FB79164A52F82330FF225A61FB79B3
:10048000134A52F82330D9687A79FB79104850F82A
:1004900023300A43DA6015E0FB790D4A52F8233025
:1004A0004FF47F425A61FB79094A52F82330DA68E7
:1004B0007B791B021846FB79054951F8233002432A
:1004C000DA6000BF00BF0C37BD4680BC704700BF7C
:1004D0000000002080B483B000AF03460A46FB71E1
:1004E0001346BB71002318460C37BD4680BC7047CD
:1004F00080B483B000AF03460A46FB711346BB715C
:1005000000BF0C37BD4680BC704700BF80B483B0CD
:1005100000AF03460A46FB711346BB71FB79022B01
:100520001CD0022B25DC002B02D0012B0BD020E0AD
:10053000134B5B69BA79012101FA02F21146104AA4
:100540000B43536116E00E4BDB69BA79012101FAC6
:1005500002F211460A4A0B43D3610BE0084B9B6938
:10056000BA79012101FA02F21146054A0B4393615F
:1005700000E000BF00BF0C37BD4680BC704700BF25
:100580000010024080B483B000AF03460A46FB71FE
:100590001346BB71FB79022B1ED0022B28DC002BEB
:1005A00002D0012B0CD023E0144B5B69BA790121F6
:1005B00001FA02F2D2431146104A0B40536118E08F
:1005C0000E4BDB69BA79012101FA02F2D2431146DE
:1005D0000A4A0B40D3610CE0084B9B69BA790121B0
:1005E00001FA02F2D2431146044A0B40936100E043
:1005F00000BF00BF0C37BD4680BC704700100240F2
:1006000080B500AF00F07AF8064B5B68054A23F02E
:1006100001035360034B5B68024A43F002035360DB
:1006200000BF80BD0010024080B400AF044B5B6887
:10063000DBB203F00C03DBB21846BD4680BC70474A
:100640000010024080B483B000AF0346FB71194B29
:100650001B68184A23F480331360FB79002B02D007
:10066000012B07D00DE0134B1B68124A23F48023A3
:10067000136006E00F4B1B680E4A43F4802313609F
:1006800000BF0C4B1B680B4A43F48033136000BF60
:10069000084B1B685B0C03F00103002BF8D0054BE3
:1006A0009B68044A43F40023936000BF0C37BD46A7
:1006B00080BC70470010024080B400AF0E4B1B6836
:1006C0000D4A43F00103136000BF0B4B1B685B082E
:1006D00003F00103002BF8D0074B9B68064A43F454
:1006E00080239360044B1B68034A23F07803136054
:1006F00000BFBD4680BC70470010024080B500AF0F
:10070000184B1B68174A43F08073136000BF154BEA
:100710001B685B0E03F00103002BF8D0114B9B68A4
:10072000104A43F4801393600020FFF78BFF0D4BBA
:100730005B680C4A43F4803353600A4B5B68094A98
:1007400023F400335360074B5B68064A23F47013AD
:100750005360044B5B68034A43F40013536000BFCB
:1007600080BD00BF0010024080B483B000AF78604D
:100770007B68002B19D00F4B5B680E4A23F47F5324
:1007800023F0300353600B4B5B687A6812781101D9
:100790007A685278120211437A689278D2020A4338
:1007A0001146044A0B43536000E000BF0C37BD46BE
:1007B00080BC70470010024080B500AFFFF720FFFB
:1007C00000BF80BD80B500AF00F005F800F024F850
:1007D00000F042F8FEE780B483B000AF0B4B7B60C3
:1007E0000B4B3B6007E07A68131D7B603B68191D6B
:1007F000396012681A603B68064A9342F3D300BF1F
:1008000000BF0C37BD4680BC704700BF0009000820
:10081000000000200C00002080B483B000AF094B22
:100820007B6004E07B681A1D7A6000221A607B6896
:10083000054A9342F6D300BF00BF0C37BD4680BCCB
:10084000704700BF0C0000200C00002080B400AFF7
:1008500000BFBD4680BC704780B582B000AFFFF7D7
:10086000ABFF03210220FFF751FE04210220FFF716
:100870004DFE02210220FFF749FE02220E21012037
:10088000FFF756FC02220D210220FFF751FC09223E
:1008900008210020FFF74CFC08210020FFF724FD71
:1008A0000346002B05D001220E210120FFF7DCFCBE
:1008B00004E000220E210120FFF7D6FC01220D21C9
:1008C0000220FFF7D1FC00237B6002E07B6801334C
:1008D0007B607B68094A9342F8D900220D210220EF
:1008E000FFF7C2FC00233B6002E03B6801333B6042
:1008F0003B68024A9342F8D9CEE700BF3F420F005F
:0C09000000080140000C01400010014004
:04000005080007C523
:00000001FF
