:020000040800F2
:10000000005000204D180008D5180008D518000829
:10001000D5180008D5180008D51800080000000001
:10002000000000000000000000000000D5180008DB
:10003000D518000800000000D5180008591600085F
:10004000D5180008D5180008D5180008D5180008DC
:10005000D5180008D5180008A5030008D10300082A
:10006000FD0300082904000855040008D5180008FD
:10007000D5180008D5180008D5180008D5180008AC
:10008000D5180008D5180008D5180008D51800089C
:10009000D5180008D5180008D518000881040008F4
:1000A000D5180008D5180008D5180008D51800087C
:1000B000D5180008D5180008D5180008D51800086C
:1000C000D5180008D5180008D5180008D51800085C
:1000D000D5180008D5180008D5180008D51800084C
:1000E000E9040008D518000800000000D518000831
:1000F000D5180008D5180008D5180008D51800082C
:10010000D5180008D5180008D5180008D51800081B
:10011000D5180008D5180008D5180008D51800080B
:10012000D5180008D5180008D5180008D5180008FB
:1001300080B485B000AF03460A46FB711346BB711D
:10014000BB790F2B2CD8FB79022B29D8BB799B08C4
:10015000FB73164AFB7B023352F82320BB7903F072
:1001600003039B000F2101FA03F3DB4318460F49F9
:10017000FB7B0240023341F823200C4AFB7B023315
:1001800052F82320F979BB7903F003039B0001FAAD
:1001900003F318460549FB7B0243023341F8232051
:1001A00000BF1437BD4680BC704700BF000001404F
:1001B00080B582B000AF0346FB710B46BB7113469E
:1001C0007B71BB79184600F031F8BA79FB7911469A
:1001D0001846FFF7ADFF7A79BB791146184600F053
:1001E0003FF800BF0837BD4680BD80B483B000AF84
:1001F00003463960FB71FB790F2B0ED8094B1B6846
:10020000FA79012101FA02F21146064A0B43136002
:10021000FB7905493A6841F8232000BF0C37BD46F9
:1002200080BC7047000401404800002080B483B0C7
:1002300000AF0346FB71FB790F2B0AD8074B1B68F5
:10024000FA79012101FA02F2D2431146034A0B4026
:10025000136000BF0C37BD4680BC704700040140EE
:1002600080B483B000AF03460A46FB711346BB71EE
:10027000BB79022B32D0022B45DC002B02D0012BA4
:1002800016D040E0234B9B68FA79012101FA02F273
:100290001146204A0B4393601E4BDB68FA7901211B
:1002A00001FA02F2D24311461A4A0B40D3602BE006
:1002B000184BDB68FA79012101FA02F21146154A5E
:1002C0000B43D360134B9B68FA79012101FA02F2C8
:1002D000D24311460F4A0B40936015E00D4B9B68CB
:1002E000FA79012101FA02F211460A4A0B4393609E
:1002F000084BDB68FA79012101FA02F21146054A3E
:100300000B43D36000E000BF00BF0C37BD4680BC8C
:10031000704700BF0004014080B483B000AF0346C3
:10032000FB71FB790F2B09D8074B1B69FA79012167
:1003300001FA02F21146044A0B43136100BF0C3765
:10034000BD4680BC704700BF0004014080B483B04C
:1003500000AF0346FB71074B5A69FB7922FA03F39E
:10036000DBB203F00103DBB218460C37BD4680BC9C
:10037000704700BF0004014080B483B000AF034663
:10038000FB71074B5B69FA79012101FA02F2114610
:10039000034A0B43536100BF0C37BD4680BC704716
:1003A0000004014080B500AF074B1B68002B02D052
:1003B000054B1B689847054B5B69044A43F00103F2
:1003C000536100BF80BD00BF480000200004014011
:1003D00080B500AF074B5B68002B02D0054B5B6814
:1003E0009847054B5B69044A43F00203536100BF21
:1003F00080BD00BF480000200004014080B500AF70
:10040000074B9B68002B02D0054B9B689847054B18
:100410005B69044A43F00403536100BF80BD00BF21
:10042000480000200004014080B500AF074BDB68A6
:10043000002B02D0054BDB689847054B5B69044AEB
:1004400043F00803536100BF80BD00BF4800002097
:100450000004014080B500AF074B1B69002B02D0A0
:10046000054B1B699847054B5B69044A43F0100331
:10047000536100BF80BD00BF480000200004014060
:1004800080B582B000AF0523FB7120E0144B5A69A0
:10049000FB7922FA03F303F00103012B14D1FB795A
:1004A000104A52F82330002B04D0FB790D4A52F841
:1004B000233098470A4B5B69FA79012101FA02F26D
:1004C0001146074A0B435361FB790133FB71FB79FA
:1004D000092BDBD900BF00BF0837BD4680BD00BF78
:1004E000000401404800002080B582B000AF0A231C
:1004F000FB7120E0144B5A69FB7922FA03F303F0F5
:100500000103012B14D1FB79104A52F82330002B40
:1005100004D0FB790D4A52F8233098470A4B5B69A7
:10052000FA79012101FA02F21146074A0B4353619D
:10053000FB790133FB71FB790F2BDBD900BF00BFC7
:100540000837BD4680BD00BF0004014048000020C0
:1005500080B483B000AF0346FB710B46BB711346FA
:100560007B71FB79002B06D0FB79012B03D0FB7943
:10057000022B40F08180BB790F2B7DD87B790F2B2C
:1005800002D97B79312B77D1BB79072B25D8FB7921
:100590003C4A52F823301A68BB799B000F2101FABC
:1005A00003F3DB431846FB79364951F82330024008
:1005B0001A60FB79334A52F823301A687B7903F0CA
:1005C0000F01BB799B0001FA03F31846FB792D4913
:1005D00051F8233002431A6026E0FB79294A52F889
:1005E00023305A68BB79083B9B000F2101FA03F3C3
:1005F000DB431846FB79234951F8233002405A6007
:10060000FB79204A52F823305A687B7903F00F01B6
:10061000BB79083B9B0001FA03F31846FB791949A3
:1006200051F8233002435A607B79092B11D1FB79B1
:10063000144A52F82330DA68BB79012101FA03F336
:10064000DB431846FB790F4951F823300240DA604A
:1006500012E07B79312B0FD1FB790A4A52F8233013
:10066000DA68BB79012101FA03F31846FB790549E1
:1006700051F823300243DA6000BF0C37BD4680BC1E
:10068000704700BF0000002080B483B000AF034675
:10069000FB710B46BB7113467B71FB79002B05D0B8
:1006A000FB79012B02D0FB79022B23D1BB790F2BD5
:1006B00020D87B79002B02D07B79012B1AD17B7952
:1006C000002B0CD0012B17D1BB79012202FA03F1C8
:1006D000FB790C4A52F823300A461A610DE0BB79C7
:1006E000012202FA03F1FB79064A52F823300A4646
:1006F0005A6102E000BF00E000BF00BF0C37BD46FA
:1007000080BC70470000002080B483B000AF034677
:100710000A46FB711346BB71FB79002B05D0FB79B0
:10072000012B02D0FB79022B12D1BB790F2B0FD8F2
:10073000FB790A4A52F82330DA68BB79012101FAC1
:1007400003F31846FB79054951F823304240DA603B
:1007500000BF0C37BD4680BC704700BF00000020C2
:1007600080B483B000AF03460A46FB711346BB71E9
:10077000FB79002B05D0FB79012B02D0FB79022BF2
:100780000FD1BB790F2B0CD8FB79094A52F82330D3
:100790009A68BB7922FA03F3DBB203F00103DBB200
:1007A00000E0002318460C37BD4680BC704700BFF0
:1007B0000000002080B483B000AF0346FB710B46FD
:1007C000BB7113467B71FB79002B05D0FB79012BA4
:1007D00002D0FB79022B6DD1BB790F2B6AD87B79C4
:1007E000002B02D0012B33D069E0FB79364A52F856
:1007F000233000221A60BB7903F00F034FF011324F
:1008000002FB03F1FB79304A52F823300A461A60A2
:10081000BB79092B0CD1FB792B4A52F82330DA68CB
:10082000FB79294951F8233002F47F42DA6043E032
:10083000BB79312B40D1FB79234A52F82330DA6857
:10084000FB79214951F8233042F0FF02DA6033E0AE
:10085000FB791D4A52F8233000225A60BB7903F01D
:100860000F034FF0113202FB03F1FB79164A52F8E5
:1008700023300A465A60BB79092B0BD1FB79124A07
:1008800052F82330D968FB790F4A52F82330CAB2A4
:10089000DA6013E0BB79312B10D1FB790A4A52F8A8
:1008A0002330DA68FB79084951F8233042F47F425B
:1008B000DA6003E000BF02E000BF00E000BF00BF5D
:1008C0000C37BD4680BC70470000002080B483B068
:1008D00000AF0346FB710B46BB7113467B71BB79BE
:1008E000002B02D0012B13D028E0FB79164A52F8D6
:1008F0002330FF225A61FB79134A52F82330D9681A
:100900007A79FB79104850F823300A43DA6015E011
:10091000FB790D4A52F823304FF47F425A61FB793C
:10092000094A52F82330DA687B791B021846FB79B2
:10093000054951F823300243DA6000BF00BF0C378D
:10094000BD4680BC704700BF0000002080B483B06B
:1009500000AF03460A46FB711346BB7100231846DD
:100960000C37BD4680BC704780B483B000AF0346EF
:100970000A46FB711346BB7100BF0C37BD4680BCF5
:10098000704700BF80B582B000AF786004220021BC
:100990000120FFF7DDFD0C4B00221A700B4B0022EB
:1009A0001A70012200210120FFF702FC08490020F3
:1009B000FFF71BFC074A7B68136000F01FFE00BFB7
:1009C0000837BD4680BD00BF8C0000201401002008
:1009D000D90900088800002098B500AF1C4B1B788F
:1009E000DBB2002B0AD11A4B01221A70194B0022DC
:1009F0001A701949194800F09BFE26E0144B1B7829
:100A0000DBB2012B21D1134B1B78DBB2202B12D888
:100A1000104B1B78DBB25A1CD1B20E4A11701C4627
:100A200000F0FCFE03460E4A42F824300A490B4807
:100A300000F07EFE09E000F001FE054B02221A7074
:100A400000F032F8024B00221A7000BF98BD00BFC0
:100A50008C00002014010020650A0008A086010017
:100A60009000002080B500AF0D4B1B78DBB2012B4E
:100A70000DD10C4B1B78DBB2212B08D1084B022285
:100A80001A7000F011F8064B00221A7006E0044BB1
:100A900000221A70034B00221A7000BF00BF80BDF5
:100AA0008C0000201401002080B582B000AF274BDD
:100AB0001B6842F22832934244D8244B1B6842F20E
:100AC000C32293423ED900237B600123FB701AE0CE
:100AD000FB781E4A52F8233040F6FC0293420FD8AE
:100AE000FB781A4A52F82330B3F5FA6F08D3FB7833
:100AF000013B012202FA03F31A467B6813437B6031
:100B0000FB780133FB70FB781F2BE1D97B6803F482
:100B100070627B681B0A03F0F003DB439A4205D145
:100B20000C220B490B4800F08BFF0CE00A4B1B68B2
:100B3000002B08D0084B1B687A68120CD2B2104602
:100B4000984700E000BF0837BD4680BD90000020F8
:100B5000BC270008580100208800002080B500AFA5
:100B60000020FFF763FB00F069FD024B00221A70C2
:100B700000BF80BD8C00002080B584B000AF7860DD
:100B80000023FB600FE0F86800F069F8FB68DBB257
:100B90001946786800F0E1F840F6C41000F09AFDBC
:100BA000FB680133FB60FB68072BECDD00BF00BF77
:100BB0001037BD4680BD80B500AF02220021012064
:100BC000FFF7C6FC022201210120FFF7C1FC02222F
:100BD00003210120FFF7BCFC022204210120FFF7C2
:100BE000B7FC022205210120FFF7B2FC02220621F8
:100BF0000120FFF7ADFC022207210120FFF7A8FC2E
:100C0000022208210120FFF7A3FC0222002100207C
:100C1000FFF79EFC022201210020FFF799FC02222F
:100C200002210020FFF794FC022203210020FFF79D
:100C30008FFC022204210020FFF78AFC02220521FA
:100C40000020FFF785FC022206210020FFF780FC30
:100C5000022207210020FFF77BFC00BF80BD80B58A
:100C600082B000AF786000F04CF87B68072B43D867
:100C700001A252F823F000BF990C0008A50C00084F
:100C8000B10C0008BD0C0008C90C0008D50C000808
:100C9000E10C0008ED0C0008002200210120FFF704
:100CA000F3FC2AE0002201210120FFF7EDFC24E003
:100CB000002203210120FFF7E7FC1EE000220421AF
:100CC0000120FFF7E1FC18E0002205210120FFF7D9
:100CD000DBFC12E0002206210120FFF7D5FC0CE02E
:100CE000002207210120FFF7CFFC06E000220821A7
:100CF0000120FFF7C9FC00E000BF00BF0837BD4678
:100D000080BD80B500AF012200210120FFF7BCFCAF
:100D1000012201210120FFF7B7FC0122032101205C
:100D2000FFF7B2FC012204210120FFF7ADFC0122F4
:100D300005210120FFF7A8FC012206210120FFF771
:100D4000A3FC012207210120FFF79EFC01220821BC
:100D50000120FFF799FC00BF80BD80B582B000AFD5
:100D600078600B46FB707B681B781A46FB7842FA6A
:100D700003F3DBB203F00103DBB21A4600210020CB
:100D8000FFF782FC7B6801331B781A46FB7842FA36
:100D900003F3DBB203F00103DBB21A4601210020AA
:100DA000FFF772FC7B6802331B781A46FB7842FA25
:100DB00003F3DBB203F00103DBB21A460221002089
:100DC000FFF762FC7B6803331B781A46FB7842FA14
:100DD00003F3DBB203F00103DBB21A460321002068
:100DE000FFF752FC7B6804331B781A46FB7842FA03
:100DF00003F3DBB203F00103DBB21A460421002047
:100E0000FFF742FC7B6805331B781A46FB7842FAF1
:100E100003F3DBB203F00103DBB21A460521002025
:100E2000FFF732FC7B6806331B781A46FB7842FAE0
:100E300003F3DBB203F00103DBB21A460621002004
:100E4000FFF722FC7B6807331B781A46FB7842FACF
:100E500003F3DBB203F00103DBB21A4607210020E3
:100E6000FFF712FC00BF0837BD4680BD80B500AF5C
:100E700000F0C4F800BF80BD80B485B000AF034669
:100E8000FB71FB7903F01F03FB73FB791F2B06D863
:100E9000FB7B01229A40094B1B681A6008E0FB7932
:100EA0003B2B05D8FB7B01229A40044B5B681A6000
:100EB00000BF1437BD4680BC704700BF0C00002047
:100EC00080B485B000AF0346FB71FB7903F01F03CC
:100ED000FB73FB791F2B06D8FB7B01229A40094B41
:100EE0009B681A6008E0FB793B2B05D8FB7B01224D
:100EF0009A40044BDB681A6000BF1437BD4680BCC3
:100F0000704700BF0C00002080B485B000AF0346DE
:100F1000FB71FB7903F01F03FB73FB791F2B06D8D2
:100F2000FB7B01229A40094B1B691A6008E0FB79A0
:100F30003B2B05D8FB7B01229A40044B1B691A60AE
:100F400000BF1437BD4680BC704700BF0C000020B6
:100F500080B485B000AF0346FB71FB7903F01F033B
:100F6000FB73FB791F2B06D8FB7B01229A40094BB0
:100F70009B691A6008E0FB793B2B05D8FB7B0122BB
:100F80009A40044B9B691A6000BF1437BD4680BC71
:100F9000704700BF0C00002080B485B000AF03464E
:100FA000FB71FB7903F01F03BB73FB791F2B0DD87B
:100FB000114B1B6A1A68BB7B012101FA03F322FA69
:100FC00003F3DBB203F00103FB730FE0FB793B2B70
:100FD0000CD8094B5B6A1A68BB7B012101FA03F349
:100FE00022FA03F3DBB203F00103FB73FB7B184629
:100FF0001437BD4680BC70470C00002080B483B01D
:1010000000AF054B7B60054A7B68136000BF0C375F
:10101000BD4680BC704700BF0003FA050CED00E040
:1010200080B485B000AF0346FB710B46BB7113461D
:101030007B71FB793B2B0CD87A79BB791343FB731B
:10104000FB7903F1604303F56443FA7B1201D2B2EA
:101050001A7000BF1437BD4680BC704780B483B09F
:1010600000AF03460A46FB711346BB71FB79022BA6
:101070001CD0022B25DC002B02D0012B0BD020E052
:10108000134B5B69BA79012101FA02F21146104A49
:101090000B43536116E00E4BDB69BA79012101FA6B
:1010A00002F211460A4A0B43D3610BE0084B9B69DD
:1010B000BA79012101FA02F21146054A0B43936104
:1010C00000E000BF00BF0C37BD4680BC704700BFCA
:1010D0000010024080B483B000AF03460A46FB71A3
:1010E0001346BB71FB79022B1ED0022B28DC002B90
:1010F00002D0012B0CD023E0144B5B69BA7901219B
:1011000001FA02F2D2431146104A0B40536118E033
:101110000E4BDB69BA79012101FA02F2D243114682
:101120000A4A0B40D3610CE0084B9B69BA79012154
:1011300001FA02F2D2431146044A0B40936100E0E7
:1011400000BF00BF0C37BD4680BC70470010024096
:1011500080B500AF00F058F8064B5B68054A23F0F5
:1011600001035360034B5B68024A23F002035360A0
:1011700000BF80BD0010024080B400AF044B5B682C
:10118000DBB203F00C03DBB21846BD4680BC7047EF
:101190000010024080B483B000AF0346FB71194BCE
:1011A0001B68184A23F480331360FB79002B02D0AC
:1011B000012B07D00DE0134B1B68124A23F4802348
:1011C000136006E00F4B1B680E4A43F48023136044
:1011D00000BF0C4B1B680B4A43F48033136000BF05
:1011E000084B1B685B0C03F00103002BF8D0054B88
:1011F0009B68044A43F40023936000BF0C37BD464C
:1012000080BC70470010024080B400AF0E4B1B68DA
:101210000D4A43F00103136000BF0B4B1B685B08D2
:1012200003F00103002BF8D0074B9B68064A43F4F8
:1012300080239360044B1B68034A23F078031360F8
:1012400000BFBD4680BC70470010024080B400AFB4
:1012500000BFBD4680BC704780B483B000AF7860EB
:101260007B68002B19D00F4B5B680E4A23F47F5329
:1012700023F0300353600B4B5B687A6812781101DE
:101280007A685278120211437A689278D2020A433D
:101290001146044A0B43536000E000BF0C37BD46C3
:1012A00080BC70470010024080B582B000AFFFF7ED
:1012B0004FFF00233B7104237B710023BB713B1D57
:1012C0001846FFF7C9FF00BF0837BD4680BD00BF05
:1012D00080B582B000AF00F091F91A494FF47A70EE
:1012E00000F04EFA0023FB7124E0FB79164A1B0143
:1012F000134400221A70FB79134A1B0113440C3368
:1013000003221A70FB79104A1B0113440A3300228E
:101310001A80FB790C4A1B011344083300221A80FF
:10132000FB79094A1B011344043300221A60FB793C
:101330000133FB71FB79022BD7D900BF00BF0837FF
:10134000BD4680BD4D1300081801002080B500AFD8
:10135000044B1B680133034A136000F005F800BF1B
:1013600080BD00BF4801002080B582B000AF0023DF
:10137000FB7146E0FB79274A1B0113440C331B78B1
:10138000002B3BD1FB79234A1B01134408331B88F4
:10139000002B24D1FB791F4A1B0113440C3301227B
:1013A0001A70FB791B4A1B0113440A331A88FB7914
:1013B000013A91B2174A1B01134408330A461A80B6
:1013C000FB79144A1B01134404331B689847FB79CB
:1013D000104A1B0113440C3300221A700EE0FB79F3
:1013E0000C4A1B01134408331A88FB79013A91B265
:1013F000084A1B01134408330A461A80FB7901335B
:10140000FB71FB79022BB5D900BF00BF0837BD4681
:1014100080BD00BF1801002080B487B000AFB96064
:1014200011461A460346FB730B46BB811346FB80ED
:101430000023FB752DE0FB7D1A4A1B0113440C337E
:101440001B78032B22D1FB7D164A1B011344FA7B28
:101450001A70FB7D134A1B0113440433BA681A60E7
:10146000FB7D104A1B0113440A33BA891A80FB7DA5
:101470000C4A1B0113440833FA881A80FB7D094A81
:101480001B0113440C3300221A7006E0FB7D01336C
:10149000FB75FB7D022BCED900BF00BF1C37BD46BC
:1014A00080BC70471801002080B485B000AF0346AF
:1014B000FB710023FB7312E0FB7B0D4A1B011344FD
:1014C0001B78FA799A4207D1FB7B094A1B01134426
:1014D0000C3303221A7006E0FB7B0133FB73FB7BAA
:1014E000022BE9D900BF00BF1437BD4680BC70474E
:1014F0001801002080B485B000AF0346FB710023C3
:10150000FB7312E0FB7B0D4A1B0113441B78FA7935
:101510009A4207D1FB7B094A1B0113440C33022278
:101520001A7006E0FB7B0133FB73FB7B022BE9D9CE
:1015300000BF00BF1437BD4680BC704718010020B3
:1015400080B485B000AF0346FB710023FB7312E04B
:10155000FB7B0D4A1B0113441B78FA799A4207D191
:10156000FB7B094A1B0113440C3300221A7006E06E
:10157000FB7B0133FB73FB7B022BE9D900BF00BF70
:101580001437BD4680BC70471801002080B485B078
:1015900000AF0346FB710023FB7311E0FB7B0D4A98
:1015A0001B0113441B78FA799A4206D1FB7B094A46
:1015B0001B0113440C331B7806E0FB7B0133FB73E8
:1015C000FB7B022BEAD9632318461437BD4680BC47
:1015D000704700BF1801002080B400AF054B1B7896
:1015E000032B02D1044B1B6800E000231846BD46C4
:1015F00080BC7047500100204C01002080B400AF37
:10160000064B00221A60054B00229A60034B002211
:101610005A6000BFBD4680BC704700BF10E000E0CC
:1016200080B400AF044B1B68034A43F0010313600E
:1016300000BFBD4680BC704710E000E080B400AF42
:10164000044B1B68034A23F00103136000BFBD462F
:1016500080BC704710E000E080B500AF194B1B78EC
:10166000032B22D0032B26DC012B02D0022B14D01B
:1016700021E0154B1B68144A23F001031360124B41
:1016800000229A600F4B00221A70104B1B68002B2F
:1016900013D00E4B1B6898470FE00C4B1B68002BB8
:1016A0000DD00A4B1B68984709E0094B1B680133B2
:1016B000074A136004E000BF02E000BF00E000BF83
:1016C00080BD00BF5001002010E000E05401002068
:1016D0004C01002080B483B000AF7860134B1B68CE
:1016E000124A23F002031360104A7B6853600F4BC9
:1016F0001B680E4A43F00103136000BF0B4B1B68CD
:101700001B0C03F00103002BF8D0084B1B68074AA1
:1017100023F001031360054B00229A60034B002263
:101720005A6000BF0C37BD4680BC704710E000E037
:1017300080B483B000AF786039600E4B1B680D4AEF
:1017400023F0010313600B4B00229A60094A7B6867
:101750005360094B01221A70084A3B681360054B1D
:101760001B68044A43F00303136000BF0C37BD46F7
:1017700080BC704710E000E05001002054010020C0
:1017800080B483B000AF786039600F4B1B680E4A9D
:1017900023F0010313600C4B00229A600A4A7B6815
:1017A000013B5360094B02221A70094A3B681360DF
:1017B000054B1B68044A43F00303136000BF0C375A
:1017C000BD4680BC704700BF10E000E05001002023
:1017D0005401002080B483B000AF78600D4B1B68CB
:1017E0000C4A23F0010313600A4B00229A60094A55
:1017F0007B68013B5360084B03221A70054B1B6842
:10180000044A43F00303136000BF0C37BD4680BC9D
:10181000704700BF10E000E05001002080B400AF2E
:10182000044B5A68034B9B68D31A1846BD4680BCCC
:10183000704700BF10E000E080B400AF024B9B682F
:101840001846BD4680BC704710E000E080B500AF90
:1018500000F005F800F024F800F0A0F9FEE780B4ED
:1018600083B000AF0B4B7B600B4B3B6007E07A68AB
:10187000131D7B603B68191D396012681A603B6854
:10188000064A9342F3D300BF00BF0C37BD4680BC6D
:10189000704700BFD027000800000020480000204B
:1018A00080B483B000AF094B7B6004E07B681A1DF5
:1018B0007A6000221A607B68054A9342F6D300BF23
:1018C00000BF0C37BD4680BC704700BF48000020F9
:1018D0007401002080B400AF00BFBD4680BC7047DB
:1018E000B0B586B000AF78607B685B681B01264AA4
:1018F000B2FBF3F3FB827B685B681B01184600F0C8
:1019000061FC02460B461EA1D1E9000100F0FEFD7C
:1019100002460B4614461D46FB8A184600F062FC40
:1019200002460B462046294600F00EFB02460B46B7
:101930001046194600F0F2FE03463B61386900F09C
:1019400063FC4FF00002114B00F0B6FC02460B4660
:101950001046194600F0C2FE0346FB73FB8A1A01CB
:10196000FB7B1A437B681B781946094B53F82130DF
:101970009A6000BF1837BD46B0BD00BFAFF300800E
:101980000000000080845E4100127A0000003040B8
:101990003400002080B582B000AF78607B681B7A8D
:1019A0001A037B689B7A5B021A437B68DB7A9B0095
:1019B0001A437B681B7819461A4B53F82130DA60BA
:1019C0007B685B7A1A037B681B781946154B53F8C2
:1019D00021301A617B681B781A46124B53F822306B
:1019E00000225A617B681B781A460E4B53F822304E
:1019F00000221A607868FFF773FF7B681B781A462D
:101A0000084B53F82230DA687B681B781946054B7F
:101A100053F8213042F40052DA6000BF0837BD4667
:101A200080BD00BF3400002080B485B000AFF860F6
:101A3000B9601346FB7100BF1437BD4680BC7047C8
:101A400080B487B000AFF860B9601346FB71BB6823
:101A50007B617B69002B20D01BE07B691A78FB68D7
:101A60001B7819460F4B53F821305A6000BFFB68B2
:101A70001B781A460B4B53F822301B689B0903F066
:101A80000103002BF3D07B6901337B61FB79013BC0
:101A9000FB71FB79002BE0D100E000BF1C37BD4695
:101AA00080BC70473400002080B487B000AF7860FD
:101AB00039603B68002B15D17B681B781A462C4B8C
:101AC00053F8223030225A6000BF7B681B781A46D8
:101AD000274B53F822301B689B0903F00103002BAE
:101AE000F3D040E000237B611BE03968214BA3FB6E
:101AF0000123DA0813469B0013445B00CA1AD3B2D1
:101B00003033D9B207F108027B6913440A461A70D0
:101B10003B68184AA2FB0323DB083B607B69013367
:101B20007B613B68002BE0D118E007F108027B697C
:101B300013441A787B681B7819460D4B53F82130F3
:101B40005A6000BF7B681B781A46094B53F8223055
:101B50001B689B0903F00103002BF3D07B695A1E1D
:101B60007A61002BE1D11C37BD4680BC704700BFB5
:101B700034000020CDCCCCCC80B400AF00BFBD463B
:101B800080BC704780B400AF00BFBD4680BC7047CA
:101B900080B400AF00BFBD4680BC704780B500AFC9
:101BA000FFF782FB02210220FFF758FA03210220EF
:101BB000FFF754FA04210220FFF750FA0021022017
:101BC000FFF74CFA0E210220FFF748FA002202210B
:101BD0000020FEF7EFFD0B2209210020FEF7B8FCE4
:101BE00004220A210020FEF7B3FCFFF73FF9002290
:101BF00000210620FFF714FA0620FFF73DF90D48F3
:101C0000FEF7C0FE0C4B00221A700B4B4FF4E13272
:101C10005A60094B00225A72074B00229A72064BF7
:101C20000322DA72044B00221A720348FFF7B2FE55
:101C3000FEE700BF3D1C00085801002080B582B0BF
:101C400000AF0346FB71FB7919460948FFF72CFFEB
:101C5000022208490648FFF7F3FEFB791A460021E5
:101C60000020FEF733FE00BF0837BD4680BD00BF31
:101C700058010020CC27000880B500AFFFF7ACFC6E
:101C80000246144B1B68D31A312B21D9FFF7A4FC51
:101C90000346104A13600E210120FEF761FD034642
:101CA000012B0BD10C4B1B78002B07D10D210220EF
:101CB000FEF72AFD084B01221A7009E00E210120CF
:101CC000FEF74EFD0346002B02D1034B00221A7093
:101CD00000BF80BD6C0100207001002080B500AF06
:101CE0000E210120FEF710FD00BF80BD70B54FF042
:101CF000FF0C4CF4E06C1CEA11541DBF1CEA135598
:101D000094EA0C0F95EA0C0F00F0DEF82C4481EAFF
:101D1000030621EA4C5123EA4C5350EA013518BF1F
:101D200052EA033541F4801143F4801338D0A0FB0C
:101D300002CE4FF00005E1FB02E506F00042E0FBB9
:101D400003E54FF00006E1FB03569CF0000F18BFBF
:101D50004EF0010EA4F1FF04B6F5007F64F5407467
:101D600004D25FEA4E0E6D4146EB060642EAC621FA
:101D700041EA55514FEAC52040EA5E504FEACE2E67
:101D8000B4F1FD0C88BFBCF5E06F1ED8BEF1004F6A
:101D900008BF5FEA500E50F1000041EB045170BDE6
:101DA00006F0004646EA010140EA020081EA03012A
:101DB000B4EB5C04C2BFD4EB0C0541EA045170BD26
:101DC00041F480114FF0000E013C00F3AB8014F1A0
:101DD000360FDEBF002001F0004170BDC4F10004E9
:101DE000203C35DA0C341BDC04F11404C4F120056A
:101DF00000FA05F320FA04F001FA05F240EA0200C5
:101E000001F0004221F0004110EBD37021FA04F6FA
:101E100042EB06015EEA430E08BF20EAD37070BDB4
:101E2000C4F10C04C4F1200500FA04F320FA05F013
:101E300001FA04F240EA020001F0004110EBD37015
:101E400041F100015EEA430E08BF20EAD37070BD85
:101E5000C4F1200500FA05F24EEA020E20FA04F35E
:101E600001FA05F243EA020321FA04F001F000410D
:101E700021FA04F220EA020000EBD3705EEA430E7E
:101E800008BF20EAD37070BD94F0000F0FD101F0AD
:101E90000046400041EB010111F4801F08BF013CE6
:101EA000F7D041EA060195F0000F18BF704703F024
:101EB0000046520043EB030313F4801F08BF013DAB
:101EC000F7D043EA0603704794EA0C0F0CEA135567
:101ED00018BF95EA0C0F0CD050EA410618BF52EA21
:101EE0004306D1D181EA030101F000414FF0000027
:101EF00070BD50EA410606BF1046194652EA430635
:101F000019D094EA0C0F02D150EA013613D195EAA8
:101F10000C0F05D152EA03361CBF104619460AD1F0
:101F200081EA030101F0004141F0FE4141F47001FA
:101F30004FF0000070BD41F0FE4141F4780170BDEA
:101F400081F0004102E000BF83F0004330B54FEA6A
:101F500041044FEA430594EA050F08BF90EA020FD7
:101F60001FBF54EA000C55EA020C7FEA645C7FEA6A
:101F7000655C00F0E2804FEA5454D4EB5555B8BF8D
:101F80006D420CDD2C4480EA020281EA030382EAFE
:101F9000000083EA010180EA020281EA0303362D90
:101FA00088BF30BD11F0004F4FEA01314FF4801C63
:101FB0004CEA113102D0404261EB410113F0004F75
:101FC0004FEA03334CEA133302D0524263EB43032C
:101FD00094EA050F00F0A780A4F10104D5F1200ECA
:101FE0000DDB02FA0EFC22FA05F2801841F1000125
:101FF00003FA0EF2801843FA05F359410EE0A5F1F9
:1020000020050EF1200E012A03FA0EFC28BF4CF029
:10201000020C43FA05F3C01851EBE37101F00045DF
:1020200007D54FF0000EDCF1000C7EEB00006EEBEC
:102030000101B1F5801F1BD3B1F5001F0CD3490876
:102040005FEA30004FEA3C0C04F101044FEA4452CD
:1020500012F5800F80F09A80BCF1004F08BF5FEA54
:10206000500C50F1000041EB045141EA050130BD34
:102070005FEA4C0C404141EB0101013C28BFB1F546
:10208000801FE9D291F0000F04BF01460020B1FA91
:1020900081F308BF2033A3F10B03B3F120020CDA64
:1020A0000C3208DD02F1140CC2F10C0201FA0CF042
:1020B00021FA02F10CE002F11402D8BFC2F1200CA7
:1020C00001FA02F120FA0CFCDCBF41EA0C0190405D
:1020D000E41AA2BF01EB0451294330BD6FEA0404A6
:1020E0001F3C1CDA0C340EDC04F11404C4F1200291
:1020F00020FA04F001FA02F340EA030021FA04F3A3
:1021000045EA030130BDC4F10C04C4F1200220FAF9
:1021100002F001FA04F340EA0300294630BD21FA37
:1021200004F0294630BD94F0000F83F4801306BFFD
:1021300081F480110134013D4EE77FEA645C18BFF1
:102140007FEA655C29D094EA050F08BF90EA020F88
:1021500005D054EA000C04BF1946104630BD91EA80
:10216000030F1EBF0021002030BD5FEA545C05D183
:102170004000494128BF41F0004130BD14F58004C2
:102180003CBF01F5801130BD01F0004545F0FE4136
:1021900041F470014FF0000030BD7FEA645C1ABF6B
:1021A000194610467FEA655C1CBF0B46024650EAA2
:1021B000013406BF52EA033591EA030F41F40021CE
:1021C00030BD00BF90F0000F04BF0021704730B554
:1021D0004FF4806404F132044FF000054FF0000129
:1021E00050E700BF90F0000F04BF0021704730B5EA
:1021F0004FF4806404F1320410F0004548BF4042BF
:102200004FF000013EE700BF42004FEAE2014FEA13
:1022100031014FEA02701FBF12F07F4393F07F4FEE
:1022200081F06051704732F07F4208BF704793F0F1
:102230007F4F04BF41F40021704730B54FF4607404
:1022400001F0004521F000411CE700BF50EA010207
:1022500008BF704730B54FF000050AE050EA0102B0
:1022600008BF704730B511F0004502D5404261EB20
:1022700041014FF4806404F132045FEA915C3FF461
:10228000D8AE4FF003025FEADC0C18BF03325FEAFE
:10229000DC0C18BF033202EBDC02C2F1200300FAAF
:1022A00003FC20FA02F001FA03FE40EA0E0021FAD4
:1022B00002F11444BDE600BF70B54FF0FF0C4CF4C2
:1022C000E06C1CEA11541DBF1CEA135594EA0C0F74
:1022D00095EA0C0F00F0DEF82C4481EA030621EAAF
:1022E0004C5123EA4C5350EA013518BF52EA0335EA
:1022F00041F4801143F4801338D0A0FB02CE4FF09C
:102300000005E1FB02E506F00042E0FB03E54FF0CB
:102310000006E1FB03569CF0000F18BF4EF0010EC3
:10232000A4F1FF04B6F5007F64F5407404D25FEABF
:102330004E0E6D4146EB060642EAC62141EA555172
:102340004FEAC52040EA5E504FEACE2EB4F1FD0CB4
:1023500088BFBCF5E06F1ED8BEF1004F08BF5FEA32
:10236000500E50F1000041EB045170BD06F00046E4
:1023700046EA010140EA020081EA0301B4EB5C0491
:10238000C2BFD4EB0C0541EA045170BD41F4801189
:102390004FF0000E013C00F3AB8014F1360FDEBFAE
:1023A000002001F0004170BDC4F10004203C35DA8A
:1023B0000C341BDC04F11404C4F1200500FA05F30D
:1023C00020FA04F001FA05F240EA020001F00042AE
:1023D00021F0004110EBD37021FA04F642EB060124
:1023E0005EEA430E08BF20EAD37070BDC4F10C044E
:1023F000C4F1200500FA04F320FA05F001FA04F212
:1024000040EA020001F0004110EBD37041F10001FD
:102410005EEA430E08BF20EAD37070BDC4F1200508
:1024200000FA05F24EEA020E20FA04F301FA05F270
:1024300043EA020321FA04F001F0004121FA04F218
:1024400020EA020000EBD3705EEA430E08BF20EAE8
:10245000D37070BD94F0000F0FD101F00046400022
:1024600041EB010111F4801F08BF013CF7D041EAA4
:10247000060195F0000F18BF704703F000465200A8
:1024800043EB030313F4801F08BF013DF7D043EA79
:102490000603704794EA0C0F0CEA135518BF95EA2F
:1024A0000C0F0CD050EA410618BF52EA4306D1D1B6
:1024B00081EA030101F000414FF0000070BD50EAD5
:1024C000410606BF1046194652EA430619D094EA5F
:1024D0000C0F02D150EA013613D195EA0C0F05D149
:1024E00052EA03361CBF104619460AD181EA03019D
:1024F00001F0004141F0FE4141F470014FF0000055
:1025000070BD41F0FE4141F4780170BD70B54FF0EF
:10251000FF0C4CF4E06C1CEA11541DBF1CEA13556F
:1025200094EA0C0F95EA0C0F00F0A7F8A4EB050451
:1025300081EA030E52EA03354FEA013100F0888048
:102540004FEA03334FF0805545EA131343EA126311
:102550004FEA022245EA111545EA10654FEA0026C6
:102560000EF000419D4208BF964244F1FD0404F57F
:10257000407402D25B084FEA3202B61A65EB0305DB
:102580005B084FEA32024FF480104FF4002CB6EB98
:10259000020E75EB030E22BFB61A754640EA0C0018
:1025A0005B084FEA3202B6EB020E75EB030E22BF58
:1025B000B61A754640EA5C005B084FEA3202B6EB99
:1025C000020E75EB030E22BFB61A754640EA9C0058
:1025D0005B084FEA3202B6EB020E75EB030E22BF28
:1025E000B61A754640EADC0055EA060E18D04FEAE6
:1025F000051545EA16754FEA06164FEAC30343EA86
:1026000052734FEAC2025FEA1C1CC0D111F4801F52
:102610000BD141EA00014FF000004FF0004CB6E74B
:1026200011F4801F04BF01430020B4F1FD0C88BFEA
:10263000BCF5E06F3FF6AFAEB5EB030C04BFB6EBF5
:10264000020C5FEA500C50F1000041EB045170BDE8
:102650000EF0004E4EEA113114EB5C04C2BFD4EB15
:102660000C0541EA045170BD41F480114FF0000E99
:10267000013C90E645EA060E8DE60CEA135594EA15
:102680000C0F08BF95EA0C0F3FF43BAF94EA0C0F18
:102690000AD150EA01347FF434AF95EA0C0F7FF48D
:1026A00025AF104619462CE795EA0C0F06D152EAE1
:1026B00003353FF4FDAE1046194622E750EA4106C5
:1026C00018BF52EA43067FF4C5AE50EA41047FF4D6
:1026D0000DAF52EA43057FF4EBAE12E74A0011D288
:1026E00012F5001211D20DD56FF47873B3EB62526C
:1026F0000ED44FEAC12343F0004343EA505323FA78
:1027000002F070474FF00000704750EA013002D1EC
:102710004FF0FF3070474FF0000070474FEA410222
:10272000B2F1E04324BFB3F5001CDCF1FE5C0DD92F
:1027300001F0004C4FEAC0024CEA5070B2F1004F79
:1027400040EB830008BF20F00100704711F0804F7C
:1027500021D113F13872BCBF01F00040704741F441
:1027600080114FEA5252C2F11802C2F1200C10FA45
:102770000CF320FA02F018BF40F001004FEAC12329
:102780004FEAD32303FA0CFC40EA0C0023FA02F3CD
:102790004FEA4303CCE77FEA625307D150EA0133A3
:1027A0001EBF4FF0FE4040F44000704701F0004073
:0C27B00040F0FE4040F40000704700BF05
:1027BC004572726F7220446174610D0A0000000052
:0427CC000D0A0000F2
:1027D00000080140000C01400010014000E100E051
:1027E00004E100E080E100E084E100E000E200E0DC
:1027F00004E200E080E200E084E200E000E300E0C8
:1028000004E300E00038014000440040004800407C
:08281000000054545454000070
:040000050800184D8A
:00000001FF
